:100000000C942B010C945C010C945C010C945C012D
:100010000C945C010C945C010C945C010C945C01EC
:100020000C945C010C945C010C945C010C945C01DC
:100030000C945C010C945C010C945C010C945C01CC
:100040000C945C010C945C010C945C010C945C01BC
:100050000C945C010C945C010C945C010C942B05D9
:100060000C945C010C94FF050C94D5050C945C0178
:100070000C945C010C945C010C945C010C945C018C
:100080000C945C010C945C010C945C010C945C017C
:100090000C945C010C945C010C945C010C945C016C
:1000A0000C945C010C945C010C945C010C945C015C
:1000B0000C945C010C945C010C945C010C945C014C
:1000C0000C945C010C945C010C945C010C945C013C
:1000D0000C945C010C945C010C949F050C947505C8
:1000E0000C945C010C94C8010C94F5010C946B0207
:1000F0000C94EB010C94DD010C94B1010C94AD0255
:100100000C940D020C94D0010C94FA020C94350658
:100110000C9407020C9403020C943A020C944307CB
:100120000C9449020C94E1010C94B6010C945D020C
:100130000C94CC010C94E7010C94F9010C94D701B8
:100140000C94FD010C94EF010C94D40100002100EB
:10015000240027002A002D00300033000101000098
:10016000040107010A0100002200250028002B00DD
:100170002E003100340002010000050108010B01CE
:1001800005050505070508080808020202020A0A13
:100190000808040404040101010101010101030331
:1001A000030303030303040707070C0C0C0C0C0CDC
:1001B0000C0C0202020206060606060606060B0BD9
:1001C0000B0B0B0B0B0B010210202008081020401A
:1001D000102040800201020108040201010204080B
:1001E0001020408080402010080402018004020199
:1001F00080402010080402010804020101020408E2
:1002000010204080010204081020408000000A0BEA
:1002100002090C0D0E080703040100000000000095
:1002200000000000000000000000000000000000CE
:10023000000000000000000012111000000000008B
:1002400000000000000000000000000000000000AE
:1002500000003506430711241FBECFEFD1E2DEBFF9
:10026000CDBF00E00CBF12E0A0E0B2E0E6E6F3E1B3
:1002700000E00BBF02C007900D92A238B107D9F77A
:1002800023E0A2E8B2E001C01D92AF3CB207E1F763
:1002900011E0CAE2D1E000E006C021970109802FF9
:1002A000FE010E94A808C932D10780E00807A9F71B
:1002B0000E9496060C94A1090C940000FC01A089F0
:1002C000B18982E08C93A485B5851C92A685B785FB
:1002D00080E18C93108EA489B58986E08C93A289E5
:1002E000B3898C9180618C93A289B3898C91886049
:1002F0008C93A289B3898C9180688C930288F3894E
:10030000E02D80818F7D80830895382FE9E1F2E030
:100310008491E3EDF1E02491EDE8F1E094919923EB
:1003200009F435C0882311F181508231F8F4E82FA7
:10033000F0E08827E156FE4F8F4F0C94A808D001BB
:10034000D401B101C801CC01B601D701DD01E10141
:10035000E701EB01EF01F501F901B601FD0103022F
:100360000702809180008F7780938000E92FF0E072
:10037000EE0FFF1FEA59FE4FA591B4918FB7F89485
:10038000EC91311148C020952E232C938FBF0895F6
:10039000809180008F7DE8CF80918000877FE4CFBF
:1003A00084B58F7784BDE2CF84B58F7DFBCF8091FC
:1003B000B0008F778093B000D9CF8091B0008F7D4F
:1003C000F9CF809190008F7780939000CFCF80916C
:1003D00090008F7DF9CF80919000877FF5CF80913D
:1003E000A0008F778093A000C1CF8091A0008F7D67
:1003F000F9CF8091A000877FF5CF809120018F7782
:1004000080932001B3CF809120018F7DF9CF80911F
:100410002001877FF5CF2E2BB8CFAF92BF92CF921E
:10042000DF92EF92FF920F931F93CF93DF936C01B4
:100430007B018B01040F151FEB015E01AE18BF0895
:10044000C017D10759F06991D601ED91FC91019047
:10045000F081E02DC6011995892B79F7C501DF914F
:10046000CF911F910F91FF90EF90DF90CF90BF90B1
:10047000AF900895FC01538D448D252F30E0842FDB
:1004800090E0821B930B541710F0CF9608950197BC
:100490000895FC01918D828D981761F0A28DAE0FA9
:1004A000BF2FB11D5D968C91928D9F5F9F73928F30
:1004B00090E008958FEF9FEF0895FC01918D828D5C
:1004C000981731F0828DE80FF11D858D90E0089529
:1004D0008FEF9FEF0895FC01918D228D892F90E081
:1004E000805C9F4F821B91098F73992708958BE839
:1004F00092E00E946B0221E0892B09F420E0822F18
:10050000089588E293E00E946B0221E0892B09F4B0
:1005100020E0822F0895FC01A48DA80FB92FB11DF2
:10052000A35ABF4F2C91848D90E001968F73992729
:10053000848FA689B7892C93A089B1898C91837007
:1005400080648C93938D848D981306C00288F38900
:10055000E02D80818F7D80830895EF92FF920F932D
:100560001F93CF93DF93EC0181E0888F9B8D8C8D5F
:1005700098131AC0E889F989808185FF15C09FB753
:10058000F894EE89FF896083E889F9898081837016
:10059000806480839FBF81E090E0DF91CF911F91C5
:1005A0000F91FF90EF900895F62E0B8D10E00F5FE6
:1005B0001F4F0F731127E02E8C8D8E110CC00FB6BC
:1005C00007FCFACFE889F989808185FFF5CFCE0154
:1005D0000E948B02F1CFEB8DEC0FFD2FF11DE35A42
:1005E000FF4FF0829FB7F8940B8FEA89FB898081D7
:1005F0008062CFCFCF93DF93EC01888D8823B9F051
:10060000AA89BB89E889F9898C9185FD03C080811D
:1006100086FD0DC00FB607FCF7CF8C9185FFF2CF9A
:10062000808185FFEDCFCE010E948B02E9CFDF9163
:10063000CF910895FC0101900020E9F73197AF01B7
:10064000481B590BBC0188E293E00C940D02CF9338
:10065000DF93D0E0C0E0009719F00E941A03EC018C
:1006600088E192E00E941A038C0F9D1FDF91CF91C9
:100670000895FC0180819181009711F00C94E307AB
:1006800008950F931F93CF93DF93EC018881998195
:10069000009759F02A813B812617370730F081E017
:1006A000DF91CF911F910F9108958B016F5F7F4F65
:1006B0000E94B008009759F0998388831B830A83AE
:1006C0002C813D81232B59F7FC011082E8CF80E07B
:1006D000E7CFEF92FF920F931F93CF93DF93EC013D
:1006E0007B018A01BA010E9441032881398181116D
:1006F00014C02115310519F0C9010E94E3071982C0
:1007000018821D821C821B821A82CE01DF91CF913A
:100710001F910F91FF90EF9008951D830C83B701F7
:10072000C9010E949A09F1CFAF92BF92CF92DF9296
:10073000EF92FF920F931F93CF93DF93CDB7DEB766
:10074000AA970FB6F894DEBF0FBECDBF8BE892E03C
:100750000E946B02892B09F444C18E010F5F1F4F69
:100760006801F12CE12C58012FB7F8948091870291
:1007700090918802A0918902B0918A022FBF809344
:10078000930290939402A0939502B09396028BE803
:1007900092E00E94490297FF14C12FB7F89480910C
:1007A000870290918802A0918902B0918A022FBF9E
:1007B000409193025091940260919502709196023B
:1007C000841B950BA60BB70B40918F0250919002A2
:1007D000609191027091920284179507A607B7075E
:1007E000B0F2F801EE0DFF1D1082F801CC24C39485
:1007F000D12C8191882331F08C32D9F78FEFC81A30
:10080000D80AF7CFC601880F991FC114E0E4DE06AD
:1008100014F08FEF9FEF0E9447077C010097B9F01B
:10082000FC011183008390E080E0F80121918F01A9
:10083000222379F02C32C9F7319710820196FC01FE
:10084000EE0FFF1FEE0DFF1D11830083EECFD12CA5
:10085000C12CF70180819181009709F494C0F2E0E6
:10086000CF16D1040CF48FC00E946C086130710562
:100870008105910509F480C00CF05DC0672B682BE1
:10088000692B09F473C018A21F8E1AA219A21CA208
:100890001BA2F50101900020E9F73197AF014A1939
:1008A0005B09B501CE014F960E9469031EA21DA2ED
:1008B00018A61FA21AA619A640E250E061E672E04F
:1008C000CE0185960E946903CF8CD8A0C114D104B3
:1008D00009F46AC00BA11CA101151105B9F089A585
:1008E0009AA5080F191FB801CE0185960E944103F1
:1008F000882309F459C02DA13EA189A59AA5B60166
:10090000820F931F0E949A091AA709A749A55AA501
:100910006DA17EA188E293E00E940D0288E192E041
:100920000E941A03CE0185960E943903CE014F968C
:100930000E94390328C0623071058105910559F183
:10094000633071058105910509F09DCFF701828122
:1009500093810E946C086130710581059105F1F465
:1009600081E00E9485018BE192E003C0F701828162
:1009700093810E94270307C0F7018281938100972A
:1009800011F00E941A03E114F10409F4DFCEC7014B
:100990000E94E307DBCE80E892E0EBCF80E00E948C
:1009A00085018DE392E0E5CF8DA19EA1009711F026
:1009B0000E94E3071EA21DA21AA619A618A61FA22E
:1009C000A5CF8B33910509F40CCFF60181936F010C
:1009D000FFEFEF1AFF0A2EE1E216F10409F0C4CE90
:1009E00000CFAA960FB6F894DEBF0FBECDBFDF9141
:1009F000CF911F910F91FF90EF90DF90CF90BF901C
:100A0000AF90089580E090E0892B29F00E94810248
:100A100081110E94000080E090E0892B49F080E085
:100A200090E0892B29F00E94000081110E940000B3
:100A300080E090E0892B49F080E090E0892B29F05C
:100A40000E94000081110E9400000E947702811123
:100A50000C94940308951F920F920FB60F921124D5
:100A60002F933F938F939F93AF93BF938091870270
:100A700090918802A0918902B0918A0230918602F9
:100A800023E0230F2D3758F50196A11DB11D2093AA
:100A900086028093870290938802A0938902B09384
:100AA0008A028091820290918302A0918402B09187
:100AB00085020196A11DB11D80938202909383024D
:100AC000A0938402B0938502BF91AF919F918F91C3
:100AD0003F912F910F900FBE0F901F90189526E811
:100AE000230F0296A11DB11DD2CF1F920F920FB6F8
:100AF0000F9211240BB60F922F933F934F935F9356
:100B00006F937F938F939F93AF93BF93EF93FF93D5
:100B10008BE892E00E948B02FF91EF91BF91AF9121
:100B20009F918F917F916F915F914F913F912F9105
:100B30000F900BBE0F900FBE0F901F9018951F9235
:100B40000F920FB60F9211240BB60F922F938F9323
:100B50009F93EF93FF93E0919B02F0919C02808121
:100B6000E091A102F091A20282FD1DC090818091CE
:100B7000A4028F5F8F732091A502821741F0E0914C
:100B8000A402F0E0E557FD4F958F8093A402FF91FA
:100B9000EF919F918F912F910F900BBE0F900FBEF1
:100BA0000F901F9018958081F2CF1F920F920FB671
:100BB0000F9211240BB60F922F933F934F935F9395
:100BC0006F937F938F939F93AF93BF93EF93FF9315
:100BD00088E293E00E948B02FF91EF91BF91AF9169
:100BE0009F918F917F916F915F914F913F912F9145
:100BF0000F900BBE0F900FBE0F901F9018951F9275
:100C00000F920FB60F9211240BB60F922F938F9362
:100C10009F93EF93FF93E0913803F0913903808124
:100C2000E0913E03F0913F0382FD1DC090818091D1
:100C300041038F5F8F7320914203821741F0E0914F
:100C40004103F0E0E85DFC4F958F80934103FF91F5
:100C5000EF919F918F912F910F900BBE0F900FBE30
:100C60000F901F9018958081F2CFEBE8F2E013828D
:100C7000128248EE53E060E070E04483558366835F
:100C800077838AE092E09183808325E331E03587A2
:100C9000248724E331E03787268720E331E0318B56
:100CA000208B21E331E0338B228B22E331E0358B43
:100CB000248B26E331E0378B268B118E128E138E18
:100CC000148EE8E2F3E01382128244835583668334
:100CD00077839183808385EC90E09587848784EC8B
:100CE00090E09787868780EC90E0918B808B81ECF9
:100CF00090E0938B828B82EC90E0958B848B86ECDA
:100D000090E0978B868B118E128E138E148EE5ECED
:100D1000F3E011821082138212821582148250E055
:100D200040E06AE172E0CF010C946903789484B5E5
:100D3000826084BD84B5816084BD85B5826085BDD7
:100D400085B5816085BD80916E00816080936E0065
:100D50001092810080918100826080938100809157
:100D60008100816080938100809180008160809308
:100D700080008091B10084608093B1008091B000C8
:100D800081608093B0008091910082608093910097
:100D900080919100816080939100809190008160AA
:100DA000809390008091A10082608093A100809147
:100DB000A10081608093A1008091A0008160809358
:100DC000A000809121018260809321018091210106
:100DD00081608093210180912001816080932001B6
:100DE00080917A00846080937A0080917A0082609A
:100DF00080937A0080917A00816080937A0080915C
:100E00007A00806880937A001092C10088E293E0B3
:100E10000E945E018BE892E00E945E0185E090E016
:100E2000A0E0B0E080932C0390932D03A0932E03B9
:100E3000B0932F0380938F0290939002A09391021E
:100E4000B0939202E3EDF1E02491EDE8F1E08491BA
:100E5000882399F090E0880F991FFC01E45BFE4F16
:100E6000A591B491FC01EA59FE4F859194918FB7F9
:100E7000F894EC91E22BEC938FBF80E00E94850107
:100E80000E940205FDCF85EC93E00C9439030F938B
:100E90001F93CF93DF938230910510F482E090E0AE
:100EA000E091CD03F091CE0330E020E0B0E0A0E08F
:100EB000309799F42115310509F44AC0281B390BE4
:100EC00024303105D8F58A819B816115710589F13E
:100ED000FB0193838283FE0111C040815181028115
:100EE000138148175907E0F04817590799F41097EC
:100EF00061F012960C93129713961C933296CF01C1
:100F0000DF91CF911F910F9108950093CD0310931E
:100F1000CE03F4CF2115310551F04217530738F0B5
:100F2000A901DB019A01BD01DF01F801C1CFEF0189
:100F3000F9CF9093CE038093CD03CDCFFE01E20F86
:100F4000F31F819391932250310939832883D7CF9E
:100F50002091CB033091CC03232B41F4209102024A
:100F6000309103023093CC032093CB0320910002F5
:100F7000309101022115310541F42DB73EB7409162
:100F8000040250910502241B350BE091CB03F09134
:100F9000CC03E217F307A0F42E1B3F0B28173907E9
:100FA00078F0AC014E5F5F4F2417350748F04E0FC5
:100FB0005F1F5093CC034093CB03819391939FCFBA
:100FC000F0E0E0E09CCFCF93DF930097E9F0FC01E5
:100FD000329713821282A091CD03B091CE03ED011E
:100FE00030E020E01097A1F420813181820F931F1F
:100FF0002091CB033091CC032817390709F061C049
:10100000F093CC03E093CB03DF91CF910895EA01F5
:10101000CE17DF07E8F54A815B819E014115510536
:10102000B1F7E901FB83EA8349915991C40FD51FB8
:10103000EC17FD0761F4808191810296840F951F62
:10104000E90199838883828193819B838A83F0E07D
:10105000E0E012968D919C9113970097B9F52D9130
:101060003C911197CD010296820F931F2091CB03E3
:101070003091CC032817390739F6309751F5109283
:10108000CE031092CD03B093CC03A093CB03BCCF7F
:10109000D383C28340815181840F951FC817D9071C
:1010A00061F44E5F5F4F88819981480F591F5183CA
:1010B00040838A819B81938382832115310509F0C6
:1010C000B0CFF093CE03E093CD039ECFFD01DC01C2
:1010D000C0CF13821282D7CF1F93FC019927882794
:1010E000BC01E89411911032E9F3193010F01E3070
:1010F000C8F31B3251F01D3249F4689406C00E94B7
:101100009308610F711D811D911D119110531A30AB
:10111000B0F33EF490958095709561957F4F8F4F19
:101120009F4F1F910895592F482F372F262F660F55
:10113000771F881F991F660F771F881F991F620FDF
:10114000731F841F951F660F771F881F991F0895AF
:10115000EE0FFF1F881F8BBF0790F691E02D1994AB
:101160004F925F926F927F928F929F92AF92BF92B7
:10117000CF92DF92EF92FF920F931F93CF93DF9363
:101180008C01009799F4CB01DF91CF911F910F91C2
:10119000FF90EF90DF90CF90BF90AF909F908F9097
:1011A0007F906F905F904F900C944707FC01E60F83
:1011B000F71F9C0122503109E217F30708F4AEC073
:1011C000D901CD91DC911197C617D70720F1C53011
:1011D000D10578F0CE0104978617970750F0C61B0B
:1011E000D70B2297C193D1936D937C93CF010E942B
:1011F000E307C801DF91CF911F910F91FF90EF900E
:10120000DF90CF90BF90AF909F908F907F906F9026
:101210005F904F9008955B01AC1ABD0A4C018C0E93
:101220009D1EA091CD03B091CE03512C412CF12CE9
:10123000E12C109731F58091CB039091CC03881568
:10124000990509F05CC04616570608F058C0809111
:10125000000290910102009741F48DB79EB7409132
:10126000040250910502841B950BE817F90708F05A
:1012700055C0F093CC03E093CB03F90171836083F5
:10128000B8CF8D919C91119712966C9012971396EE
:101290007C901397A815B90559F56C0142E0C40E6E
:1012A000D11CCA14DB0420F1AC014A195B09DA0134
:1012B0001296159780F06282738251834083D90120
:1012C0006D937C93E114F10471F0D7011396FC93B4
:1012D000EE9312978ECF22968C0F9D1FF90191836A
:1012E0008083F301EFCFF093CE03E093CD0381CF62
:1012F0004816590608F42C017D01D3019ACFCB0181
:101300000E9447077C01009749F0AE01B8010E9496
:101310009109C8010E94E30787016BCF10E000E04C
:1013200068CFFB01DC0102C001900D92415050409A
:10133000D8F70895FB01DC0101900D920020E1F740
:10134000089511E0CAE2D1E000E006C0802FFE015E
:101350000E94A8082196011DCB32D10780E0080722
:06136000A9F7F894FFCF8D
:101366000000CF03800000000000AD020D023A022B
:10137600FA026B0249025D020D0A00D0A1D0B2D07A
:10138600B5D182D0BED0B4D0B8D0BED0B420D0B201
:10139600D0BAD0BBD18ED187D0B5D0BD00D0A1D028
:1013A600B2D0B5D182D0BED0B4D0B8D0BED0B420E1
:1013B600D0B2D18BD0BAD0BBD18ED187D0B5D0BD6B
:1013C60000D09DD0B5D18220D182D0B0D0BAD0BEC7
:1013D600D0B3D0BE20D0BAD0BBD18ED187D0B03A50
:0213E6002000E5
:00000001FF
